:020000040800F2
:1000000000040020710A0008410C0008410C00089F
:10001000410C0008410C0008410C0008410C00088C
:10002000410C0008410C0008410C0008110D0008AB
:10003000410C0008410C0008410C0008710C00083C
:10004000410C0008410C0008410C0008410C00085C
:10005000410C0008410C0008410C0008410C00084C
:10006000410C0008410C0008410C0008F12A00086E
:10007000212B0008512B0008912B0008D12B0008E0
:10008000112C0008512C0008410C0008A134000874
:10009000213500086135000891350008410C000841
:1000A000410C0008410C0008410C0008410C0008FC
:1000B000410C000861370008410C0008410C0008A1
:1000C000410C0008410C0008410C0008410C0008DC
:1000D000410C0008F1330008410C000811340008FD
:0C00E000410C0008410C0008410C000815
:0C00EC000101000821010008410100088A
:1001000008B504F0EDF941F20843C2F200031860AB
:1001100008BD00BFAFF30080AFF30080AFF30080F5
:1001200041F20C40C2F20000002208B5026004F067
:10013000CFFA41F21443C2F20003186008BD00BFB9
:1001400041F21840C2F2000004F0B2BAAFF30080EE
:1001500010B582B002F0A4FB00F0BAFE642001F0FA
:100160001FFD03F005FD1548154903F029FD15484D
:10017000002102F0C5FB13481349144A022302F080
:10018000E7FB00244FF404714022114B1148009406
:1001900001F0CEFB4FF44063C4F201034FF4006260
:1001A0005A6120464FF4196141220B4B009401F033
:1001B00057FDC82001F0F4FCFBE700BF94130020BA
:1001C00000080020AC0E0020F04F00086815002049
:1001D0003147000878150020D1470008AFF30080B0
:1001E00081F0004102E000BF83F0004330B54FEAE8
:1001F00041044FEA430594EA050F08BF90EA020F55
:100200001FBF54EA000C55EA020C7FEA645C7FEAE7
:10021000655C00F0E2804FEA5454D4EB5555B8BF0A
:100220006D420CDD2C4480EA020281EA030382EA7B
:10023000000083EA010180EA020281EA0303362D0D
:1002400088BF30BD11F0004F4FEA01314FF4801CE0
:100250004CEA113102D0404261EB410113F0004FF2
:100260004FEA03334CEA133302D0524263EB4303A9
:1002700094EA050F00F0A780A4F10104D5F1200E47
:100280000DDB02FA0EFC22FA05F2801841F10001A2
:1002900003FA0EF2801843FA05F359410EE0A5F176
:1002A00020050EF1200E012A03FA0EFC28BF4CF0A7
:1002B000020C43FA05F3C01851EBE37101F000455D
:1002C00007D54FF0000EDCF1000C7EEB00006EEB6A
:1002D0000101B1F5801F1BD3B1F5001F0CD34908F4
:1002E0005FEA30004FEA3C0C04F101044FEA44524B
:1002F00012F5800F80F09A80BCF1004F08BF5FEAD2
:10030000500C50F1000041EB045141EA050130BDB1
:100310005FEA4C0C404141EB010111F4801FA4F154
:100320000104E9D191F0000F04BF01460020B1FAA9
:1003300081F308BF2033A3F10B03B3F120020CDAE1
:100340000C3208DD02F1140CC2F10C0201FA0CF0BF
:1003500021FA02F10CE002F11402D8BFC2F1200C24
:1003600001FA02F120FA0CFCDCBF41EA0C019040DA
:10037000E41AA2BF01EB0451294330BD6FEA040423
:100380001F3C1CDA0C340EDC04F11404C4F120020E
:1003900020FA04F001FA02F340EA030021FA04F320
:1003A00045EA030130BDC4F10C04C4F1200220FA77
:1003B00002F001FA04F340EA0300294630BD21FAB5
:1003C00004F0294630BD94F0000F83F4801306BF7B
:1003D00081F480110134013D4EE77FEA645C18BF6F
:1003E0007FEA655C29D094EA050F08BF90EA020F06
:1003F00005D054EA000C04BF1946104630BD91EAFE
:10040000030F1EBF0021002030BD5FEA545C05D100
:100410004000494128BF41F0004130BD14F580043F
:100420003CBF01F5801130BD01F0004545F0FE41B3
:1004300041F470014FF0000030BD7FEA645C1ABFE8
:10044000194610467FEA655C1CBF0B46024650EA1F
:10045000013406BF52EA033591EA030F41F400214B
:1004600030BD00BF90F0000F04BF0021704730B5D1
:100470004FF4806404F132044FF000054FF00001A6
:1004800050E700BF90F0000F04BF0021704730B567
:100490004FF4806404F1320410F0004548BF40423C
:1004A0004FF000013EE700BF42004FEAE2014FEA91
:1004B00031014FEA02701FBF12F07F4393F07F4F6C
:1004C00081F06051704792F0000F14BF93F07F4F9E
:1004D000704730B54FF4607401F0004521F00041E1
:1004E00020E700BF50EA010208BF704730B54FF067
:1004F00000050AE050EA010208BF704730B511F06C
:10050000004502D5404261EB41014FF4806404F1A3
:1005100032045FEA915C3FF4DCAE4FF003025FEA25
:10052000DC0C18BF03325FEADC0C18BF033202EBAD
:10053000DC02C2F1200300FA03FC20FA02F001FA07
:1005400003FE40EA0E0021FA02F11444C1E600BFA6
:100550004A0011D212F5001211D20DD56FF4787342
:10056000B3EB62520ED44FEAC12343F0004343EA97
:10057000505323FA02F070474FF00000704750EAE2
:10058000013002D14FF0FF3070474FF0000070474C
:1005900080F0004002E000BF81F0004142001FBF38
:1005A0005FEA410392EA030F7FEA226C7FEA236C41
:1005B0006AD04FEA1262D2EB1363C1BFD218414036
:1005C00048404140B8BF5B42192B88BF704710F0CC
:1005D000004F40F4000020F07F4018BF404211F06F
:1005E000004F41F4000121F07F4118BF494292EAD7
:1005F000030F3FD0A2F1010241FA03FC10EB0C0003
:10060000C3F1200301FA03F100F0004302D549428F
:1006100060EB4000B0F5000F13D3B0F1807F06D33C
:1006200040084FEA310102F10102FE2A51D2B1F134
:10063000004F40EBC25008BF20F0010040EA030029
:100640007047490040EB000010F4000FA2F10102D6
:10065000EDD1B0FA80FCACF1080CB2EB0C0200FA60
:100660000CF0AABF00EBC25052421843BCBFD040AE
:100670001843704792F0000F81F4000106BF80F428
:1006800000000132013BB5E74FEA41037FEA226CEB
:1006900018BF7FEA236C21D092EA030F04D092F0B6
:1006A000000F08BF0846704790EA010F1CBF0020EA
:1006B000704712F07F4F04D1400028BF40F0004047
:1006C000704712F100723CBF00F50000704700F067
:1006D000004343F0FE4040F4000070477FEA22628E
:1006E00016BF08467FEA23630146420206BF5FEA5F
:1006F000412390EA010F40F4800070474FF000035F
:1007000004E000BF10F0004348BF40425FEA000C25
:1007100008BF704743F0964301464FF000001CE0CD
:1007200050EA010208BF70474FF000030AE000BF23
:1007300050EA010208BF704711F0004302D5404261
:1007400061EB41015FEA010C02BF844601460020D3
:1007500043F0B64308BFA3F18053A3F50003BCFAEE
:100760008CF2083AA3EBC25310DB01FA02FC63449B
:1007700000FA02FCC2F12002BCF1004F20FA02F2A2
:1007800043EB020008BF20F00100704702F1200295
:1007900001FA02FCC2F1200250EA4C0021FA02F2F6
:1007A00043EB020008BF20EADC7070470000000045
:1007B0004FF0FF0C1CEAD0521EBF1CEAD15392EA44
:1007C0000C0F93EA0C0F6FD01A4480EA010C400220
:1007D00018BF5FEA41211ED04FF0006343EA50107A
:1007E00043EA5111A0FB01310CF00040B1F5000FBC
:1007F0003EBF490041EAD3715B0040EA010062F16B
:100800007F02FD2A1DD8B3F1004F40EBC25008BF54
:1008100020F00100704790F0000F0CF0004C08BF72
:1008200049024CEA502040EA51207F3AC2BFD2F13F
:10083000FF0340EAC250704740F400004FF000034D
:10084000013A5DDC12F1190FDCBF00F00040704787
:10085000C2F10002410021FA02F1C2F1200200FAC5
:1008600002FC5FEA310040F1000053EA4C0308BF8C
:1008700020EADC70704792F0000F00F0004C02BFDD
:10088000400010F4000F013AF9D040EA0C0093F058
:10089000000F01F0004C02BF490011F4000F013BB2
:1008A000F9D041EA0C018FE70CEAD15392EA0C0F20
:1008B00018BF93EA0C0F0AD030F0004C18BF31F08B
:1008C000004CD8D180EA010000F00040704790F061
:1008D000000F17BF90F0004F084691F0000F91F005
:1008E000004F14D092EA0C0F01D142020FD193EACB
:1008F0000C0F03D14B0218BF084608D180EA010053
:1009000000F0004040F0FE4040F40000704740F02E
:10091000FE4040F4400070474FF0FF0C1CEAD052FC
:100920001EBF1CEAD15392EA0C0F93EA0C0F69D058
:10093000A2EB030280EA010C49024FEA402037D0C3
:100940004FF0805343EA111143EA10130CF00040BA
:100950008B4238BF5B0042F17D024FF4000C8B42AA
:1009600024BF5B1A40EA0C00B3EB510F24BFA3EB8A
:10097000510340EA5C00B3EB910F24BFA3EB91035A
:1009800040EA9C00B3EBD10F24BFA3EBD10340EAB4
:10099000DC001B0118BF5FEA1C1CE0D1FD2A3FF6FA
:1009A00050AF8B4240EBC25008BF20F001007047AF
:1009B0000CF0004C4CEA50207F32C2BFD2F1FF0352
:1009C00040EAC250704740F400004FF00003013A83
:1009D00037E792F0000F00F0004C02BF400010F427
:1009E000000F013AF9D040EA0C0093F0000F01F03B
:1009F000004C02BF490011F4000F013BF9D041EA5D
:100A00000C0195E70CEAD15392EA0C0F08D142028F
:100A10007FF47DAF93EA0C0F7FF470AF084676E762
:100A200093EA0C0F04D14B023FF44CAF08466EE73B
:100A300030F0004C18BF31F0004CCAD130F0004209
:100A40007FF45CAF31F000437FF43CAF5FE700BF61
:100A5000704700BFAFF30080AFF30080AFF30080BA
:100A6000FEE700BFAFF30080AFF30080AFF300807C
:100A700072B6634880F30988022383F31488BFF3B6
:100A80006F8F604A604CA24217D213464FF0553127
:100A9000D64343F8041BA519A342C5F380050CD225
:100AA00025B1196002F10803A34206D21A4642F8A2
:100AB000041B5960131DA342F8D3544A824217D233
:100AC00013464FF05531D54343F8041B4419834274
:100AD000C4F380040CD224B1196002F108038342EC
:100AE00006D21E4646F8041B5960331D8342F8D3D4
:100AF00002F0C6FC464C4749A14222D246480B466A
:100B0000024652F8046BCD4343F8046B04EB050C2A
:100B1000A342CCF3800514D23DB1166800F108025F
:100B20001E6001F10803A3420BD2114651F8046B79
:100B30001846526840F8046B5A60031D0A1DA34210
:100B4000F3D3364A3648824217D200211346D443A3
:100B500043F8041B00EB040E8342CEF380040CD256
:100B600024B1196002F10803834206D21D4645F8FC
:100B7000041B59602B1D8342F8D32A4D2A4EFFF7E0
:100B800067FFB54219D22C4654F8043BE943771865
:100B90009847B442C7F380070FD22FB1236805F1FD
:100BA00008049847B44208D2254655F8042B9047CC
:100BB00060682C1D8047B442F6D31C4D1C4EFFF7D5
:100BC000C7FAB5421AD22C46EF4354F8043B06EB61
:100BD000070CCCF380079847B4420FD22FB122689C
:100BE00005F108049047B44208D2254655F8040B95
:100BF000804761682C1D8847B442F6D3FFF730FF69
:100C00000008002000000020000400200004002054
:100C10000C080020000800204050000810080020A8
:100C200088170020EC000008F8000008F800000811
:100C3000F8000008AFF30080AFF30080AFF300804E
:100C4000FEE700BFAFF30080AFF30080AFF300809A
:100C500072B6FEE7AFF30080AFF30080AFF3008021
:100C600000F0C6F900F034FD00F0DAF900DF00BF53
:100C700008B500F02DFA202383F3118800F0F0F975
:100C800000F066F900F004FA002383F3118800F005
:100C90003FFA202383F311884FF46D40CEF2000019
:100CA000436813F400631AD0EFF30983A3F1200C17
:100CB0008CF3098810494FF080708A6943F8040C5E
:100CC00092F8230009689268896858B1914294BFEC
:100CD0000022012262B1094A43F8082C08BD83F3BF
:100CE000118808BD914234BF00220122002AF2D1AE
:100CF000034943F8081C08BD240E0020610C0008BD
:100D00006C0C0008AFF30080AFF30080AFF30080FD
:100D1000EFF30983203383F30988002383F31188D9
:100D2000704700BFAFF30080AFF30080AFF30080E7
:100D300008B54FF440724FF46D43CEF20003C0F299
:100D4000FA52002199600720DA60102100F090F833
:100D50000A204FF4007100F08BF80B208021BDE8D1
:100D6000084000F085B800BFAFF30080AFF300800B
:100D7000202383F311884FF46D40CEF200004368C6
:100D800013F400631AD0EFF30983A3F1200C8CF362
:100D9000098811494FF080708A6943F8040C92F871
:100DA000230009689268896858B1914294BF002273
:100DB000012262B1094A43F8082C704783F3118875
:100DC0007047914234BF00220122002AF2D1044927
:100DD00043F8081C704700BF240E0020610C000877
:100DE0006C0C0008AFF30080AFF30080AFF300801D
:100DF0002DE9F04FC1F80CD0D0F80CD0BDE8F08F41
:100E000008B500F00DF9002383F311882846A047A8
:100E100000F0F6FE08BD00BFAFF30080AFF3008026
:100E200000F00303F0B4DA00FF2707FA02F701FA33
:100E300002FC00F01F05012404FA05F44FF461429E
:100E40008508CEF20002C03552F82560400926EA36
:100E5000070141EA0C0300F1600642F8253042F830
:100E6000264042F82040F0BC704700BFAFF300803E
:100E700000F0030330B4DA00FF2505FA02F501FAA9
:100E800002FC84084FF46D42CEF20002A01D52F81D
:100E9000204024EA050141EA0C0342F8203030BC2E
:100EA000704700BFAFF30080AFF30080AFF3008066
:100EB0000248034A83699A61FEE700BF240E0020BE
:100EC00030490008AFF30080AFF30080AFF300803B
:100ED00030B583B0FFF72CFF00F05AFA00F0A8F904
:100EE00001F00EFB01F054FB00F062F940F6100037
:100EF0004021C2F2000000F023FC40F20043C2F2A5
:100F00000003012440F62465C361C2F2000580F8A5
:100F10002040A86100F054F8002383F3118862B6E2
:100F200044F6B021AA69C0F60001916140F6600064
:100F3000002240F6B1630092C0F600034FF4D07176
:100F40002246C2F2000000F0F3FC03B030BD00BF47
:100F5000F8B500F0FDF8164B9B6993F8232012B109
:100F6000013A83F823205A6A124C571C5F62E168E9
:100F70002768481CA742E06018D0BE68013EBE60EA
:100F8000A6B93868FD684460FE60206000F080F813
:100F9000002383F311883869A847202383F311883D
:100FA00000F05EF82768BB68002BEAD0F8BD00BFF0
:100FB000240E0020140E0020AFF30080AFF3008059
:100FC0000548036813B9054A116821B10448054B67
:100FD0001860FFF73DBE7047000A00200C0E00208D
:100FE00050490008100E0020AFF30080AFF30080DE
:100FF000074810B50368074C0BB9216821B1064AB0
:10100000064B1A60FFF724FE0120206010BD00BFD0
:10101000000A00200C0E002058490008100E002085
:10102000094810B50368094C2BB92168002902DD75
:101030000020206010BD064A064B1A60FFF708FE2C
:101040000020206010BD00BF000A00200C0E002010
:1010500060490008100E0020AFF30080AFF300805D
:10106000074810B50368074C002B01DD216821B14A
:10107000054A064B1A60FFF7EBFD0120206010BD0A
:10108000000A00200C0E002068490008100E002005
:10109000094810B50368094C002B05DD21680029BB
:1010A00002DD0020206010BD054A064B1A60FFF7E4
:1010B000CFFD0020206010BD000A00200C0E002093
:1010C00070490008100E0020AFF30080AFF30080DD
:1010D00010B5202383F31188094C2368002B02DB11
:1010E000084802682AB1084B08491960FFF7B0FDAB
:1010F00023685A1C2260002383F3118810BD00BFAF
:10110000000A00200C0E0020100E00207849000874
:1011100010B5202383F31188094C2368002B02DDCE
:10112000084802682AB1084B08491960FFF790FD8A
:1011300023685A1E2260002383F3118810BD00BF6C
:10114000000A00200C0E0020100E0020804900082C
:1011500006480368002B04DB054A1168002900DDFE
:1011600070470448044B1860FFF772BD000A002066
:101170000C0E002088490008100E0020AFF30080FC
:101180000648036823B9064A1168002900DD704744
:101190000448054B1860FFF75BBD00BF000A002044
:1011A0000C0E002090490008100E0020AFF30080C4
:1011B00040F60423C2F200031A46402142F8081BFD
:1011C0005A607047AFF30080AFF30080AFF3008048
:1011D00010B40D4A0D4C0E495368E46889691C60CF
:1011E0005960846A03F110019C6090F8204002F578
:1011F000816081421C7328BF02F10803516028BF3F
:10120000536010BC704700BF040A0020140E002079
:10121000240E0020AFF30080AFF30080AFF3008016
:1012200040F61063C2F200031860FFF711BD00BF63
:1012300040F61463C2F200034FF0FF3000225B60FF
:101240001B609860DA607047AFF30080AFF30080F6
:10125000F8B504460D4616461F46FFF779FFCCB198
:10126000C6B1BDB10D4927610B68E6609A68954229
:1012700004D91B68AD1A9A68AA42FAD35A688B42FD
:101280002360626014605C60A56002D09868451BB2
:101290009D60F8BD0248FFF7C3FFE3E7140E00208E
:1012A000A0490008AFF30080AFF30080AFF30080E7
:1012B00010B50446FFF74CFF84B1E36893B123688F
:1012C0000A4A934203D09968A268881898606068B7
:1012D000002203602368E260586010BD0448FFF7F5
:1012E0009FFFEAE70348FFF79BFFE8E7140E0020A3
:1012F000B0490008C0490008AFF30080AFF3008098
:1013000010B52023044683F31188FFF7A9FE94F853
:1013100020300D2B11D8DFE803F02B101007100B35
:10132000101010101010100BA06A81684A1C826007
:1013300094E80C001A60226853604FF0FF33A362F8
:10134000FFF706FF94F820300BB10E2B02D10B48AB
:10135000FFF766FF0020A168094B84F820001B6896
:101360009A688A42FBD25968236061600C605C60B5
:10137000FFF78EFE002383F3118810BDE0490008BB
:10138000240E0020AFF30080AFF30080AFF30080A5
:1013900040F62463C2F2000300225B601B609A6087
:1013A0005B611B61704700BFAFF30080AFF300804B
:1013B00010B50446FFF7CCFE94F820308BB10E2B0D
:1013C0000FD00022A168094B84F820201B68986880
:1013D0008842FBD25968236061600C605C602046E3
:1013E00010BD0348FFF71CFFEBE700BF240E0020F1
:1013F000E0490008AFF30080AFF30080AFF3008056
:1014000070B5114C0646FFF7BBFE2368A5691A6844
:1014100014200121546085F8206085F8230083F8AA
:10142000201028462260A361FFF7D2FEEA69ADF1E1
:1014300024039A4202D90548FFF7F2FEA069294623
:10144000BDE87040FFF7D4BC240E0020F44900082A
:1014500070B50E4686B00546FFF792FE731C2B4C06
:101460002ED03146A36901A8294AFFF7F1FEFFF704
:1014700087FE2368A6691A6814200121546086F843
:10148000205086F8230083F8201030462260A361A4
:10149000FFF79EFEF269ADF124039A420CD8A069D1
:1014A0003146FFF7A5FC049B13B101A8FFF700FF2D
:1014B000A369986A06B070BD1648FFF7B1FEEEE763
:1014C000FFF75EFE2368A6691A68142101205460A4
:1014D00086F8205086F8231083F8200030462260DA
:1014E000A361FFF775FEF269ADF124018A4204D8C9
:1014F000A0693146FFF77CFCDAE70648FFF790FE6B
:10150000A0693146FFF774FCD2E700BF240E00202B
:1015100001130008F4490008AFF30080AFF3008026
:10152000F8B52A4D04460F46FFF72AFEAE69A268B9
:10153000B368A7629A422BD9FFF70AFE96F82030CB
:10154000002B21D00E2B1FD00020B1681F4B86F836
:1015500020001B689A689142FBD95868336070601C
:101560005E600123066084F820303046AC61FFF7EE
:101570002FFEF169ADF1240C614523D82046314698
:10158000BDE8F840FFF734BC1148FFF749FEDBE740
:10159000FFF7DEFD94F8203083B10E2B0ED0002033
:1015A000A1680A4B84F820001B689A688A42FBD223
:1015B0005968236061600C605C60F8BD0448FFF707
:1015C0002FFEECE70348FFF72BFED7E7240E0020A1
:1015D000E0490008F4490008AFF30080AFF3008051
:1015E00038B5174DFFF7CCFD2B68AC699968A26838
:1015F000914200D838BD1968012083F820000020EE
:101600004D602960AB6184F820001B6899688A42AC
:10161000FBD358682360606004605C602046FFF77D
:10162000D7FDE269ADF124039A4202D90548FFF7DC
:10163000F7FDA8692146BDE83840FFF7D9BB00BFD8
:10164000240E0020F4490008AFF30080AFF30080BF
:1016500038B51C4D01202B68AC691A6814215560FF
:1016600083F8200084F82310AB612A60FFF770FD37
:1016700094F82030002B20D00E2B1ED00022A16821
:10168000104B84F820201B6898688842FBD25A6867
:101690002360626014605C602046FFF799FDE16999
:1016A000ADF1240C614502D90748FFF7B9FDA869DF
:1016B0002146BDE83840FFF79BBB0448FFF7B0FD6B
:1016C000DCE700BF240E0020F4490008E0490008D0
:1016D00038B5194DAC6994F82330002B27D02B680E
:1016E00001201A68A16855602A60002283F8200052
:1016F000AB6184F8202000E01B689A688A42FBD81E
:1017000058682360606004605C602046FFF760FDFD
:10171000E169ADF1240C614505D8A8692146BDE811
:101720003840FFF765BB0548FFF77AFDF5E7BDE8F0
:101730003840FFF78DBF00BF240E0020F449000899
:1017400040F62463C2F20003F0B45C690361816077
:10175000446158611423002200F1300500F12C0788
:1017600000F14C064FF0020C80F82330012380F882
:1017700020C080F8212041640264C263426280F884
:10178000223082612061C76245630563C661F0BC97
:10179000704700BFAFF30080AFF30080AFF300806D
:1017A00088422DE9F0036DD24742C0EB010C07F0EF
:1017B0000307BC4538BF6746461C002F65D001258E
:1017C0007B1EAF4203F0010802703446334612D943
:1017D000B8F1000F06D03446022504F8012BAF42C1
:1017E000234608D9234603F8012B023562705C1C9E
:1017F000AF422346F6D8BC4544D0C6EB010909F1F7
:101800000108C7EB08084FEA980C4FEA8C09BCF1B5
:10181000000F23D0002662F3070662F30F2601258E
:1018200062F3174662F31F660CF1FF34C019654579
:1018300040F8046B04EA05040DD224B10225654585
:1018400040F8046B07D2044644F8046B0235466046
:10185000201D6545F7D3C8454B4413D0D84303F842
:10186000012B0818994200F001000BD918B103F8B8
:10187000012B994206D9184600F8012B5A70431CD7
:101880009942F8D8BDE8F00370470346B5E700BFBA
:101890002DE9F84304460D4616461F46FFF758FC4F
:1018A00014B1B5F5C87F34D21C48FFF7B9FC1C4A07
:1018B000A5F1240C04EB0C015569E16044F80C70AF
:1018C000089F00234F60174F04F130000F62022180
:1018D000226104F12C0904F14C08A660656184F8CA
:1018E00020105461142101226063206384F82130A8
:1018F00084F8231066642364E363636284F822201F
:10190000A3612C61C4F82C90C4F81C802046BDE86B
:10191000F8837F2EC8D8002FC9D1C5E7104A000828
:10192000240E0020010E0008AFF30080AFF300800A
:101930002DE9F84F044640420E4610F003011746C9
:10194000984604F14C0500F021814A1E02F0010C7A
:101950000122FF202346914203F8010B4FF04B0E6A
:1019600014D9BCF1000F06D00222013391426070FD
:101970004FF04A0E0AD902F1010EA054023202338E
:10198000914204F80E00CEF14B0EF4D8C1F14C0B8D
:101990004FEA9B094FEA890AB9F1000F1FD04FF0B7
:1019A000FF3C012009EB0C026118484541F804CBCB
:1019B00002EA00020ED222B10220484541F804CBCF
:1019C00008D20A4642F804CB0230C1F804C0111D07
:1019D0004845F6D3D3455344CAEB0E0E13D001222B
:1019E000FF200EF1FF317245187001EA02010AD0A2
:1019F00019B102227245587005D0511C9854023218
:101A000072455854F9D104EB060E75456AD26B4203
:101A1000C4EB0E0903F00300A9F14C09814538BF5E
:101A200048462B46F8B14FF0550C0121421E03F8F1
:101A300001CB884202F0010A1A4612D9BAF1000F0E
:101A400005D0022103F801CB88421A4609D9134672
:101A500003F801CB023182F801C05A1C88421346B8
:101A6000F5D848453ED0C0EB09094FEA990C4FEA3A
:101A70008C0ABCF1000F1FD000F14C00211801208E
:101A80004FF0553B0CF1FF32604541F804BB02EAD0
:101A900000020ED222B10220604541F804BB08D2F8
:101AA0000A4642F804BB0230C1F804B0111D60457B
:101AB000F6D3D145534415D05521DA4303F8011B21
:101AC0000EEB02009E4500F001020BD91AB103F89B
:101AD000011B9E4506D9184600F8011B5970431C8E
:101AE0009E45F8D8202383F31188FFF781FAFFF78A
:101AF0002FFB14B1B6F5C87F42D22648FFF790FB02
:101B0000254BA6F1240904EB0901D3F814E0E160A8
:101B100044F80980DDF828800026C1F80480DFF849
:101B20007C8004F13002C1F820802361C4F814E005
:101B3000A7605C61142304F12C0C84F823304FF06F
:101B40000208012384F8223020463146CEF81040A6
:101B5000C4F82CC06263226384F8208084F821607A
:101B600067642664E6636662A661E561FFF7D8FCF8
:101B7000FFF756FA334683F311882046BDE8F88F05
:101B80007F2FBAD8B8F1000FBAD1B6E723464FF08D
:101B90004C0EFBE6104A0008240E0020010E00083F
:101BA00010B5044610B90948FFF73AFB202383F328
:101BB0001188FFF71DFA21460620FFF749FCFFF7C1
:101BC0002FFA002383F3118810BD00BF504A00088C
:101BD00010B52023044683F31188FFF709FA064B5A
:101BE000D968611A02D00620FFF732FCFFF718FA15
:101BF000002383F3118810BD140E0020AFF3008082
:101C000070B52023064683F31188FFF7F1F9104BD6
:101C10009C69254655F82C0FA662A84206D001689B
:101C2000E162FFF7C5FBE06AA842F8D194F8210011
:101C3000830704D1636921691961226953610E2008
:101C4000FFF7DEFB0348BDE87040FFF7E9BA00BFCD
:101C5000240E0020604A0008AFF30080AFF300803C
:101C60002DE9F04182B00D4616461F4600F0A0FC5B
:101C7000044618B300F14C084146FF22FFF790FDDF
:101C8000611940465522FFF78BFD202383F311880D
:101C9000FFF7AEF92046089C32463B4629460094A1
:101CA000FFF7F6FD0123044684F821300021FFF7F9
:101CB00037FCFFF7B5F9002383F31188204602B003
:101CC000BDE8F081AFF30080AFF30080AFF3008098
:101CD00010B5044620B1002364602460A36010BDE9
:101CE0000348FFF79DFA002364602460A36010BDE1
:101CF000D04A0008AFF30080AFF30080AFF300805C
:101D0000F8B53B4B05469C69FFF73AFA002D6BD0BE
:101D1000A868002836D0A2688168914208D290F85D
:101D200020308260042B45D0052B30D0002B1ED0F4
:101D30002B461B689D4203D09868A2689042F8D257
:101D400059682360616004205C600C60A562FFF745
:101D500057FBAB68A34202D02648FFF761FA206C1C
:101D6000A84213D02448BDE8F840FFF759BA90E8DC
:101D70000C001A600268012180F820105360FFF700
:101D800017FBD5E7226CAC60EA602564F8BD4168BA
:101D90000768866A0F600768334679601B689E4251
:101DA00002D099689142F9D25A680360426010608B
:101DB0005860BDE741680768866A0F600768334668
:101DC00079601B689E420DD099689142F9D25A6899
:101DD0000360426010605860B068A26883689342F4
:101DE0009DD3A5E73346F2E70448FFF719FA8FE7DA
:101DF000240E0020F04A0008044B0008E04A0008C6
:101E000010B52023044683F31188FFF7F1F820462C
:101E1000FFF776FFFFF704F9002383F3118810BD65
:101E2000214A38B59569202383F31188FFF7E0F83C
:101E30002C6C002C32D0A368AB4203D01B48FFF7B8
:101E4000EFF92C6C2068E368A0422B641DD0696C0C
:101E50004BB11A689A4203D09268914238BF11463A
:101E6000DB68002BF5D10368026CA96023600021B8
:101E70005C60A060E2600464FFF752FBFFF7D0F8FB
:101E8000002383F31188204638BD0020A060FFF7AF
:101E9000C7F8002383F31188204638BD0448FFF7B4
:101EA000BFF92C6CC7E700BF240E0020404B000890
:101EB0002C4B0008AFF30080AFF30080AFF300803D
:101EC0002DE9F84304468846FFF742F9002C35D047
:101ED0002568AC4223D04FF0000902E02D68AC42E7
:101EE0001DD0E8686E6840EA0803EB60AF68FFF752
:101EF0002FF9FEB1F26B96F820301743082BF763E9
:101F00000FD0092BEAD1B36A1F40BB42E6D130465D
:101F1000FFF74EFAC0F828902D68AC42E1D1BDE839
:101F2000F883B16A0F42D9D03046FFF741FAC0F8C2
:101F30002890F1E70348FFF773F9DBE70248FFF762
:101F40006FF9C5E7C44B0008AC4B0008AFF3008045
:101F500038B504460D46FFF7FBF8BCB1E26B94F8C8
:101F600020301543082BE5630CD0092B00D038BD79
:101F7000A06A0540A842FAD12046FFF719FA0021CD
:101F8000816238BDA36A1D42F6D138BD0148FFF712
:101F900047F9E3E7C44B0008AFF30080AFF30080DC
:101FA00010B4C361019B8A18002440600060846003
:101FB00041618161C1600261036210BC704700BF72
:101FC00038B504460D46FFF7C3F8A269636993422A
:101FD000A2681AD0511CA16003F8015B20696361FB
:101FE00083420BD22068A0420DD002682260546068
:101FF000FFF7DEF900218162084638BD2068E368FA
:10200000A0426361F1D1002038BD002AE2D06FF018
:10201000030038BDAFF30080AFF30080AFF3008062
:1020200070B5202382B004460D4683F31188FEF775
:10203000DFFFE3690BB120469847C5B1174EA3688F
:102040000D202946C3B9B3699C6262681C605A605E
:1020500063601360FFF7FCF90028F0DA0190FEF7E7
:10206000DFFF002383F31188019802B070BDA368DD
:1020700013B94FF0FF30F1E7A1695D1EA56011F8BB
:10208000015B2069A161814224BFE068A061FEF785
:10209000C7FF002383F311882846E6E7240E0020BB
:1020A0002DE9F047044691468A461D46D0F81C802B
:1020B000002A41D0202383F31188FEF799FF204E98
:1020C0000027B8F1000F01D02046C047B5B1A36882
:1020D0000D202946ABB9B3699C6262681C605A60E6
:1020E00063601360FFF7B4F90028F0D0FEF798FFA3
:1020F000002383F311883846BDE8F087A368002BDE
:10210000F4D0A169013BA36011F8012B0AF8072064
:102110002069A161814224BFE068A061FEF780FFD1
:10212000002383F311880137B945E4D0202383F3DA
:102130001188FEF75DFFC4E70248FFF771F8B9E7C1
:10214000240E0020104C0008AFF30080AFF3008095
:1021500010B4C361019B8C184060006082604161D3
:102160008161C1600461036210BC7047AFF30080FD
:10217000F0B5202383B004460D46164683F311883C
:10218000FEF736FFC6B11A4FA3680D203146C3B91A
:10219000BB699C6262681C605A6063601360FFF7F1
:1021A00057F90028F0DA0190FEF73AFF002383F395
:1021B0001188019803B0F0BDA36813B94FF0FF3048
:1021C000F1E761695A1EA26001F8015B2069E369C9
:1021D000814228BFE068616128BF60610BB1204681
:1021E0009847FEF71DFF002383F311881846E1E7A7
:1021F000240E0020AFF30080AFF30080AFF3008027
:1022000038B50446FEF7A4FF6269A3699A42A26842
:1022100016D0551CA56013F8015B2069A3618342A9
:102220000BD22068A04206D0026822605460FFF7FB
:10223000BFF800218162284638BDE368A361F0E75A
:10224000002AE6D06FF0020038BD00BFAFF3008077
:102250002DE9F047044615460E469A46D0F81C80F4
:10226000002A7CD0202383F31188FEF7C1FEB8F149
:10227000000F3DD0BAF1000F75D0DFF8749200273F
:10228000A3685A1EF3B1A2606069317800F8011B9F
:1022900022696061904201D3E36863612046C047D0
:1022A000FEF7BEFE002383F311880137013D1CD0E9
:1022B0000136202383F31188FEF79AFEA3685A1E85
:1022C000002BE0D1D9F818300D209C62626851468D
:1022D0001C605A6063601360FFF7BAF80028CFD023
:1022E000FEF79EFE002383F311883846BDE8F08791
:1022F000BAF1000F00F09A80DFF8F4914746A06829
:10230000421EE8B1A260616996F800C001F801CBF5
:1023100020696161814224BFE1686161FEF780FE4E
:10232000002383F311880137013DDED001362023DD
:1023300083F31188FEF75CFEA068421E0028E1D1FD
:10234000D9F818300D209C62626851461C605A60B2
:1023500063601360FFF77CF80028D0D0C0E76348C3
:10236000FEF75EFF7EE7EB07574641D5A1682046A2
:102370004A1E0029B4D0A2606369F15D03F8011B15
:1023800022696361934224BFE3686361C047FEF73B
:1023900047FE002383F311880137BD42B946A4D01C
:1023A000202383F31188FEF723FEA36820465A1EDC
:1023B000002B95D0A260F15D676907F8011B2269C7
:1023C0006761974224BFE7686761C047FEF728FE50
:1023D000002383F31188202309F1010783F3118877
:1023E000FEF706FEA16820464A1E0029C3D177E702
:1023F000A368002B3FF474AF013BA36060693178A0
:1024000000F8011B22696061904224BFE0686061AE
:102410002046C047FEF704FE002383F311880127FE
:10242000202383F31188FEF7E3FD9FE7EA07574671
:102430001BD4A368002B3FF453AF5A1EA2606769F8
:1024400096F800E007F801EB20696761874224BF36
:10245000E7686761FEF7E4FD002383F31188012735
:10246000202383F31188FEF7C3FDA3685A1E002BB7
:102470003FF436AFA2606169F05D01F8010B22699B
:102480006161914201D3E2686261FEF7C9FD0023F8
:1024900083F311880137BD42B8463FF426AF2023AD
:1024A00083F31188FEF7A4FDA3685A1E002B3FF4A6
:1024B00017AFA2606169F75D01F8017B2369616173
:1024C000994224BFE1686161FEF7AAFD002383F30E
:1024D0001188202308F1010783F31188FEF788FD96
:1024E000A3685A1E002BC5D1FAE600BF244C000891
:1024F000240E0020AFF30080AFF30080AFF3008024
:1025000010B445F2000C0C4C40F64861C2F2000CCD
:1025100040F6406240F644632CF00700C2F200012E
:1025200024F00704C2F20002C2F200030C60106043
:10253000186010BC704700BF8F170020AFF30080F9
:1025400038B50546202383F31188FEF751FDFEF7C9
:10255000FFFD0A4B0A491C680868073525F0070586
:10256000021B95429ABF65191D600024FEF758FDB5
:10257000002383F31188204638BD00BF480E002099
:10258000400E0020AFF30080AFF30080AFF3008077
:1025900040F65063C2F2000342F241510022C0F6FD
:1025A000000103F1100019609A60DA60FFF790BB38
:1025B000F8B5214CCE1D002818BF044604F11000C8
:1025C00026F0070604F10805FFF71AFC00E01D4697
:1025D0002B6803B35A689642F9D806F10801914274
:1025E00016D84FF6F877CFF6FF77D3F800E0C6EBB2
:1025F000070C0CEB02005F1843F801E078602F60D5
:102600005E601D4645F8084BFFF70AFC2846F8BDFA
:102610001A682A60F5E7FFF703FC2568002DF5D05E
:1026200006F10800A84705460028EFD0083580E8E5
:1026300050002846F8BD00BF500E0020AFF30080C8
:1026400070B504460D46164608B1032902D8034862
:10265000FEF7E6FD002384E8680070BD404C0008EA
:102660002DE9F04104460D461646002874D0002A94
:1026700061D0571E07F00107202383F31188FEF76E
:10268000B7FCFEF765FD002D5CD023682B6025604C
:10269000FEF7C6FC002383F311886268013E1544EF
:1026A00047D0002F34D0202383F31188FEF7A0FCFD
:1026B000FEF74EFD002D49D0216829602560FEF708
:1026C000AFFC002383F311886068013E05441FD1ED
:1026D00040E0206828602560FEF7A2FC002383F319
:1026E00011886368013EED18202383F31188FEF7FB
:1026F0007FFCFEF72DFDC5B123682B602560FEF73A
:102700008FFC002383F311886268013E154417D0C3
:10271000202383F31188FEF76BFCFEF719FD002DD3
:10272000D7D14248FEF77CFDD3E74048FEF778FD5D
:10273000E2E7BDE8F0813E48BDE8F041FEF770BD3C
:10274000BDE8F0813948FEF76BFD9EE73748FEF79C
:1027500067FDB1E7BDE8F0813548FEF761FD002E69
:10276000E7D0013E06F00107202383F31188FEF72E
:102770003FFCFEF7EDFC2D48FEF752FD22682A6073
:102780002560FEF74DFC234683F3118861686D18C0
:10279000002E48D0AFB1202383F31188FEF728FC28
:1027A000FEF7D6FC2148FEF73BFD21682960256035
:1027B000FEF736FC234683F311886068013E05442A
:1027C0002FD0202383F31188FEF712FCFEF7C0FC04
:1027D0001648FEF725FD27682F602560FEF720FCD0
:1027E000002383F31188D4F80480013E05EB080729
:1027F000202383F31188FEF7FBFBFEF7A9FC0B48AF
:10280000FEF70EFD236845F808302760FEF708FC48
:10281000002383F311886568013E3D44D1D1BDE8B2
:10282000F081BDE8F081BDE8F08100BF504C0008A8
:10283000604C0008AFF30080AFF30080AFF300807E
:1028400010B50446FEF784FC4CB1206810B1036853
:10285000236010BDA3680BB16068984710BD0248A3
:10286000FEF7DEFCF1E700BF744C0008AFF3008018
:1028700038B504460D46FEF76BFC24B11DB1236844
:102880002B60256038BD0348FEF7CAFC23682B6027
:10289000256038BD504C0008AFF30080AFF30080D6
:1028A00008B500F085FA44F6F060C0F6000000F0CC
:1028B00077FC00F00DF800F0C3F8BDE8084000F028
:1028C000E7BD00BFAFF30080AFF30080AFF300803F
:1028D00000F0B6BBAFF30080AFF30080AFF3008031
:1028E00003460022012100F1180019705A609A6015
:1028F000DA601A615A61FFF7EBB900BFAFF30080ED
:1029000038B504460D46C0B1202383F31188FEF785
:102910006FFB2178481EC3B2012B02D90948FEF78C
:102920007FFC2046656000F0D3FB02222270FEF798
:1029300077FB002383F3118838BD0348FEF770FC52
:10294000E2E700BFA04C0008904C0008AFF3008005
:10295000F8B51D4604460E461746202383F311881A
:10296000FEF746FBFEF7F4FBECB1E6B1DFB1012D5B
:1029700001D0EB0717D42378022B06D0042B04D008
:10298000052B02D00A48FEF74BFC03232370204698
:10299000A760E560266100F0CBFBFEF741FB00235A
:1029A00083F31188F8BD0348FEF73AFCE3E700BF64
:1029B000E44C0008CC4C0008AFF30080AFF300807B
:1029C0000C30FFF76DBB00BFAFF30080AFF30080AA
:1029D0000C304FF0FF33FFF763BB00BFAFF3008055
:1029E0003030FFF735BC00BFAFF30080AFF300809D
:1029F00030304FF0FF33FFF72BBC00BFAFF3008048
:102A00000C30FFF70DBB00BFAFF30080AFF30080C9
:102A10000C304FF0FF31FFF703BB00BFAFF3008076
:102A20003030FFF7A5BB00BFAFF30080AFF30080ED
:102A300030304FF0FF32FFF79BBB00BFAFF3008099
:102A400000F0F6BCAFF30080AFF30080AFF300807E
:102A500070B50B4644F600610646C0F60001044618
:102A600046F8041B6660012682B004F15401154645
:102A7000267200F10C004FF480720094FFF790FA78
:102A800004F5AA7104F130004FF480722B460094D3
:102A9000FFF75EFB02B070BDAFF30080AFF30080C4
:102AA00038B504460D46FEF753FBD4B163693BB11C
:102AB00004F10C002946FFF783FA00280BDB38BD30
:102AC000201D0421FFF7FCF904F10C002946FFF753
:102AD00077FA0028F3DA201D8021BDE83840FFF79F
:102AE000EFB90248FEF79CFBE0E700BFD84D0008B5
:102AF00010B5FEF7EDFA094800220368C4F202029D
:102B00000F241168546013B1406821409847FEF7C4
:102B1000FFFABDE81040FEF72BB900BF700E002091
:102B200010B5FEF7D5FA094800228368C4F2020204
:102B3000F024116854601BB1C068C1F303119847B9
:102B4000FEF7E6FABDE81040FEF712B9700E00205D
:102B500010B5FEF7BDFA0A4800220369C4F202026A
:102B60004FF47064116854601BB14069C1F30321D4
:102B70009847FEF7CDFABDE81040FEF7F9B800BF60
:102B8000700E0020AFF30080AFF30080AFF3008041
:102B900010B5FEF79DFA0A4800228369C4F20202CA
:102BA0004FF47044116854601BB1C069C1F3033124
:102BB0009847FEF7ADFABDE81040FEF7D9B800BF60
:102BC000700E0020AFF30080AFF30080AFF3008001
:102BD00010B5FEF77DFA0A480022036AC4F2020229
:102BE0004FF47024116854601BB1406AC1F3034173
:102BF0009847FEF78DFABDE81040FEF7B9B800BF60
:102C0000700E0020AFF30080AFF30080AFF30080C0
:102C100010B5FEF75DFA0A480022836AC4F2020288
:102C20004FF47004116854601BB1C06AC1F30351C2
:102C30009847FEF76DFABDE81040FEF799B800BF5F
:102C4000700E0020AFF30080AFF30080AFF3008080
:102C500010B5FEF73DFA0A480022036BC4F20202E7
:102C60004FF07064116854601BB1406BC1F3036195
:102C70009847FEF74DFABDE81040FEF779B800BF5F
:102C8000700E0020AFF30080AFF30080AFF3008040
:102C90002DE9F003002040F6A8614FF0080940F646
:102CA00070624FF01C084FF0300C442758266C25FA
:102CB00080240346C2F20002C2F20001C4F20209FB
:102CC000C4F20208C4F2020CC4F20207C4F2020603
:102CD000C4F20205C4F202040B60C4F20200C9F897
:102CE00000301360C8F800309360CCF800301361F6
:102CF0003B609361336013622B60936223601363C4
:102D00004FF0FF334360BDE8F0037047AFF300803E
:102D1000F0B5044685B0002836D0667A012505FA5C
:102D200006FC1E4F38681CEA000F29D11C4D4CEAE6
:102D3000000005EBC60CCCF80430430645F83620FD
:102D4000386007D04FF48053C4F202035F6947F044
:102D500001065E61236860681E680F2726F00F0574
:102D60001D6094F808C0002507FA0CF606601D6087
:102D700042B1A07A0901FEF753F8284605B0F0BD2C
:102D80002846FBE71046F9E70648039102920193B3
:102D9000FEF746FA019B029A0399BEE7A80E0020AF
:102DA000700E0020204E0008AFF30080AFF30080CB
:102DB00070B44FF4805CC4F2020C00214FF0FF3578
:102DC0004EF2100241F63F14DCF81000CEF2000281
:102DD000CCF81050C0F20104CCF81010DCF80C60F4
:102DE0004EF6F053CCF80C50CCF80C1054609160B7
:102DF00007211160CEF20003D8684FF4805140F0F3
:102E00008072DA60CEF2000108684FF4E04240F0D0
:102E100001030B60DCF81C10C4F2000241F080508A
:102E2000CCF81C00DCF81C3043F00061CCF81C101E
:102E3000106840F48073136070BCFFF729BF00BFB7
:102E40004FF48053C4F202031868194640F001029F
:102E50001A600A684FF480539207C4F20203F8D54F
:102E60001A68002002F0F901196019465860486894
:102E70004FF4805310F00C0FC4F20203F7D118681E
:102E8000194640F480221A60186840F480321A60B3
:102E90000A684FF480539003C4F20203F8D55A68CD
:102EA000194642F4E81058601A6842F080701860C1
:102EB00008684FF480538201C4F20203F8D54FF43E
:102EC00064424FF4005CC0F21D021221C4F2020CF5
:102ED0005A60CCF800105868194640F002025A6057
:102EE0004A684FF4805302F00C000828C4F2020331
:102EF000F6D1186820F0010119607047AFF3008027
:102F0000F8B50D46290704462DD5C36A01691A682C
:102F10005868156825F00F0515601B7A0F2505FA0E
:102F200003F5A26A8B6800210560916033B1052228
:102F30002046227098472078052869D00025256111
:102F4000202383F31188FEF78BF8606928B14FF0D6
:102F5000FF3365618362FEF72BFAFEF799F80023D1
:102F600083F31188F8BD6A0707D50069436823B168
:102F7000E268A168520820469847AB0737D5216917
:102F80000A78002A34D1E36AA56A93E84100076809
:102F900027F00F07076093F808E00F2707FA0EF0F5
:102FA0004B683060AA60002B42D0E2680420012AFE
:102FB000207039D94888520800FB02FCA1682046DD
:102FC00001EB4C0198472278042A28D0202383F370
:102FD0001188FEF745F8606920B1002262618262C3
:102FE000FEF7E6F9FEF754F8002383F31188F8BDE5
:102FF0004B68002BFBD0E268012A0CD948885208A4
:1030000000FB02FCA168204601EB4C019847F8BD8B
:103010000221217092E7A16820469847F8BD02215D
:10302000002321702361D1E7A16820469847CAE7B1
:10303000022020702361C9E7AFF30080AFF3008066
:1030400010B51E4C2046FFF74BFC1D494FF41053A2
:10305000C4F2010342F28A524FF4805CE1622263BF
:10306000A362C4F2020CDCF81800002240F40071E4
:10307000CCF8181001205A600922986019469A600D
:1030800088684FF410530007C4F20103F8D40522F6
:103090009A6019468B684FF4105213F00403C4F27F
:1030A0000102F7D14FF4805E9360C4F2020EDEF8A5
:1030B000180020F40071CEF8181010BDAC0E0020DE
:1030C000704E0008AFF30080AFF30080AFF30080D4
:1030D00038B503780446012B00D038BD114DA84205
:1030E00004D0A36A00215960996038BDC06A0521E7
:1030F0000D4A2346FFF70CFE78B9E86A42F24C42CB
:103100000368C4F201024FF480509A60C4F20200D6
:10311000816941F400728261E3E70448FEF780F8B8
:10312000EBE700BFAC0E0020012F0008D04E0008D6
:103130000369F0B41978026B09B142F02002C1684A
:103140005D880129C46A88BF4D438668216888BFAD
:1031500042F004021C69CE604D600A600F68DE68B0
:1031600044F48075826A45F0010047F0010746F497
:10317000807610F4841F0F6008BF45F0030056608E
:103180005F699E69DD69196A5B6A04439460D76070
:103190001661D562116353639060F0BC704700BF45
:1031A00010B44FF48051C4F202018C694FF4006CEA
:1031B00044F07D028A610368C4F2010CCCF80C3043
:1031C00084684FF44063CCF804404168C4F20103C2
:1031D000CCF80010C2684FF48051DA604469C4F240
:1031E00001015C6002694FF4A05C1A608369C4F25B
:1031F000010CCB60046A4FF4C0534C60C469C4F244
:1032000001030C60416ACCF80C10C26ACCF80420AF
:10321000816ACCF80010026BDA60816B5960426BF6
:103220001A6010BC704700BFAFF30080AFF300809E
:103230004FF46053C4F20103998988B240F08002D0
:103240009A817047AFF30080AFF30080AFF3008046
:103250004FF49043C4F20003998988B240F0800291
:103260009A817047AFF30080AFF30080AFF3008026
:103270002DE9F047D0F854520646AF892C88A8882B
:10328000A4B22307BFB21FFA80F841D004F00803AC
:10329000002B0CBF4FF480794FF4C0790CBF4FF472
:1032A000A0714FF4E0710CBF4022C0220CBF4FF45C
:1032B000907A4FF4D07A0CBF4FF4B07C4FF4F07C8E
:1032C0000CBF4FF0600E4FF0E00E0CBF2020A0208E
:1032D00018BF802314F0010F3FD104F0020CBCF1A1
:1032E000000F18BF134608BF494614F0040F0CBF67
:1032F00099468946202383F31188FDF7B1FE301DDE
:103300004946FEF7DDFDFDF7C3FE002383F3118878
:10331000E30527D4A0063CD4390601D5220648D4BB
:10332000630618D5202383F31188FDF799FE301D1D
:103330001021FEF7C5FDFDF7ABFE002383F31188D6
:103340004FF6BF7007EA0002AA81298821F04003E6
:103350001804020C2A80BDE8F087D1466146724607
:103360000346BAE7202383F31188FDF779FE301D69
:103370004FF40071FEF7A4FDFDF78AFE002383F3EE
:103380001188288820F4807211040B0CA0062B8071
:10339000C2D5202383F31188FDF762FE5FFA88F11E
:1033A0003046FFF77DFBFDF773FE002383F31188A2
:1033B000B2E7202383F31188FDF752FE06F13000B7
:1033C000FEF71EFF002807DB81B2A980FDF760FE33
:1033D000002383F31188A3E7301D0821FEF770FD59
:1033E00027F0C00343F0400CA5F80CC0EEE700BF87
:1033F00008B5FDF76DFE40F6E060C2F20000FFF791
:1034000037FFFDF785FEBDE80840FDF7B1BC00BF02
:1034100008B5FDF75DFE41F23810C2F20000FFF77B
:1034200027FFFDF775FEBDE80840FDF7A1BC00BF12
:1034300038B540F6E065C2F2000543F23122C0F62D
:1034400000022846002141F23814FFF701FBC2F2C6
:10345000000443F251224FF46053C4F20103C0F65A
:10346000000220460021C5F85432FFF7F1FA4FF46C
:103470009043C4F20003C4F8543238BDAFF3008067
:10348000FFF7DEBCAFF30080AFF30080AFF3008046
:10349000704700BFAFF30080AFF30080AFF3008050
:1034A00010B5FDF715FE1B4840F20112836EC0F205
:1034B00001029C689A60A20727D4A30520D4A00328
:1034C00019D4610712D462050BD4630303D51148E4
:1034D000022100F06DFAFDF71BFEBDE81040FDF77C
:1034E00047BC0C48012100F063FAEEE709480021CF
:1034F00000F05EFAE7E70748022100F019FAE0E77A
:103500000448012100F014FAD9E7002100F010FA74
:10351000D3E700BF94130020AFF30080AFF3008027
:1035200038B50D4DFDF7D4FDAB6EDC68A0070AD1B0
:10353000E10602D5AB6E1021D960FDF7E9FDBDE8CB
:103540003840FDF715BC586920F002025A61284640
:1035500000F04EFAECE700BF94130020AFF30080B8
:1035600008B5FDF7B5FD094B9B6E1A69910703D0AD
:10357000586920F010015961D20601D510221A6154
:10358000FDF7C6FDBDE80840FDF7F2BB941300202F
:1035900008B5FDF79DFD094B1C219B6E5A685960CB
:1035A000500704D59A699A6922F070009861FDF776
:1035B000AFFDBDE80840FDF7DBBB00BF9413002062
:1035C00041F294304FF4C843C2F20000C4F2000349
:1035D000836600F0D5BA00BFAFF30080AFF3008080
:1035E00010B5302104461320FDF71AFC14203021B9
:1035F000FDF716FC15203021FDF712FC16203021B6
:10360000FDF70EFC4FF4805CC4F2020CDCF81C30B9
:10361000A26E43F0007102200123CCF81C10207030
:1036200013605068C307FCD5032048F65B73C0F2F3
:103630002400C0F201039021D0611160536110BDDC
:10364000806E836813F0E05F0CBF0020012070479C
:1036500030B4836E0D689868EC00C0F3016000F12F
:103660001802120144F0040548719D500C7903EBD7
:10367000020C04F00F00CCF804008D6841F2903089
:10368000CCF80850CD68C2F20000CCF80C509C5821
:1036900044F001049C500968C1F31C03036030BC72
:1036A000704700BFAFF30080AFF30080AFF300803E
:1036B00010B4836EDA68900728D0D3F8B0210C6874
:1036C000D20862F31C040C60D3F8B441087964F3A7
:1036D00003000871D3F8B8018860D3F8BC01C86052
:1036E000D3F8B401000A12F4FF0F487103D019484F
:1036F0000268511C01602020D860D9688A0703D174
:10370000596941F002025A6110BC7047186980077C
:10371000FAD0D3F8C0010A68C00860F31C020A603E
:10372000D3F8C4010A7960F303020A71D3F8C821FF
:103730008A60D3F8CC01C860D3F8C421100A48715C
:10374000202119611A699107DED15A6942F01001EE
:103750005961D9E700140020AFF30080AFF3008077
:1037600008B5FDF7B5FC4FF48063C4F200030022F6
:1037700041F29430C2F200001A8200F089F8FDF79D
:10378000C7FCBDE80840FDF7F3BA00BFAFF3008007
:1037900041F294334FF48062C2F20003C4F200029B
:1037A0005A667047AFF30080AFF30080AFF300803C
:1037B00070B54FF4805EC4F2020EDEF81C4006467F
:1037C00044F00205446ECEF81C50DEF810100025BF
:1037D00041F00200CEF8100030211D20CEF810502C
:1037E000FDF71EFB336E4FF4224C1A68C0F24A4CB0
:1037F000BCFBF2F1481E83B225802385A58170BDF4
:10380000436E0021012005229882998419829881B3
:103810001A807047AFF30080AFF30080AFF30080F1
:10382000436E00221A801A829A817047AFF300809B
:10383000436E481E81B29985704700BFAFF3008088
:10384000436E988C80B27047AFF30080AFF3008076
:10385000436E9984704700BFAFF30080AFF30080E0
:1038600030B5047A85B0009AE5019DF80430C16D49
:1038700065F31C02846D082565F303030391694613
:1038800000928DF804300294FFF7E2FE05B030BDDF
:1038900038B50446202383F31188FDF7E1FB237834
:1038A000052B25D0062B0DD0042B02D00325257027
:1038B000FEE76268531C6360FDF7EAFB002383F3B5
:1038C000118838BD216E63688868421E93421FD0FC
:1038D000581C6060204600F023FA054620467DB95A
:1038E00000F0C6FAFDF7D4FB2B4683F3118838BDF0
:1038F000206E63688568AB42EAD903212170FEE738
:1039000000F02EFAFDF7C4FB002383F3118838BDC5
:10391000A2680025531CA36020466560FFF7A0FF46
:10392000FDF7B6FB2B4683F3118838BDAFF300805B
:1039300038B505460C46202383F31188FDF790FB2C
:10394000231D55F82340002245F8232044B3637F0C
:1039500013F07F0216D0D4F819C07F320CF10801A1
:1039600062F3060305F10C00C4F8191063772146D1
:1039700000F096F903202071FDF78AFB002383F302
:10398000118838BDD4F8053002222271002BF3D003
:1039900020469847FDF77CFB002383F3118838BD50
:1039A000FDF776FB234683F3118838BDAFF3008023
:1039B00070B5202304460D4683F31188FDF750FBB4
:1039C0002B1D54F82350002644F823605DB104F108
:1039D0000C00294600F064F903202871FDF758FB1C
:1039E000334683F3118870BDAFF30080AFF30080DE
:1039F00070B5202384B0044683F31188FDF730FBB3
:103A000020466946FFF754FE009BC3F31C0313F4E2
:103A1000FF0518D12378042B2BD0052B0CD1204681
:103A2000FFF70EFFA3684F4A591C1060A160656044
:103A300020469E21FFF70CFFFDF72AFB002383F3AE
:103A4000118804B070BD9DF8050004EB8004E469A2
:103A5000CCB12279022A25D0042A2CD094F81DE07A
:103A60000EF07F03ABB1617F7F3363F306016177B3
:103A7000E2E7A368002B70D0216E486898423AD0E4
:103A80005A1CA260D8E7FDF703FB234683F3118895
:103A9000FEE7D4F8052002202071002ACCD0204671
:103AA0009047C9E7D4F815C0DA0904212171C4F898
:103AB00019C0A4F811209DF80400020714D0D4F80E
:103AC00019200DF10701002311F8010F013302F84D
:103AD000010BC4F819209DF804E00EF00F0C9C4572
:103AE000F2D8009BC3F31C03627F03F07F0363F3F0
:103AF00006026277B6E72046FFF792FE2046656829
:103B0000FFF79EFEC5EB05468019FCF7F7FD256E15
:103B10000646A968686800FB01F0FCF7EFFD014666
:103B20003046FCF7F9FEFCF7BFFC00F0B1FE009B4D
:103B30000522C3F3C71322700022A3606260FCF762
:103B400007FD81B22046FFF773FE2046FFF758FEBF
:103B500020469E21FFF77CFE6EE72046FFF750FED1
:103B6000A36889E704140020AFF30080AFF300805E
:103B700008B5FFF70DFEBDE80840FFF721BD00BF07
:103B800038B504460025012300F10C00237025669A
:103B900000F07EF8204625616561A561E56125623A
:103BA0006562A562E56225636563A563E5632564D7
:103BB0006564A564E5642565BDE8384000F0A8B8F3
:103BC00038B504460D4640B3202383F31188FDF732
:103BD0000FFA2378012B26D01648FDF721FB207819
:103BE000012820D02046FFF7E3FD06232370A621FD
:103BF0002046FFF71DFE2046FFF702FEFDF710FAF4
:103C0000002383F311882278042A05D10A20FDF7C6
:103C1000C7FF20780428F9D038BD0029D4D1064840
:103C2000FDF7FEFAD0E725662046FFF7D9FC022112
:103C30002170D7E7404F0008304F0008AFF30080F5
:103C400010B501230B710C460E49CB68B4F8131064
:103C5000D3180829C4F80D30637F0DD86FF306031D
:103C60006377D4F815100C30C4F81910214600F011
:103C700017F80320207110BDCA0862F306036377AA
:103C8000EFE700BF140E0020AFF30080AFF3008019
:103C900000607047AFF30080AFF30080AFF30080A7
:103CA00038B504460D4678B171B1224606E0D5F824
:103CB0000D00D3F80D10884203D31A461368A342AF
:103CC000F5D12B60156038BD0148FDF7A9FAECE786
:103CD000804F0008AFF30080AFF30080AFF30080A7
:103CE00010B5044660B12068A04202D0036823608A
:103CF00010BD0548FDF794FA20680368236010BDE5
:103D00000248FDF78DFAEEE7D44F0008C04F0008D7
:103D1000002300F1540242658365C365704700BF0C
:103D200043681F2B0DD93B2B09D8203B012101FAF9
:103D300003F2C06D02420CBF00200120704700203A
:103D40007047012101FA03F3826D13420CBF00207A
:103D500001207047AFF30080AFF30080AFF3008025
:103D600070B5456D026E00F15404AC42936884B0A6
:103D700006468168426828D001FB0323D5F80D2050
:103D8000934222D3B5F80B108818834227D305221B
:103D90002A722B6808297365EB7E18D9C90861F36C
:103DA0000603EB76D5F80D00B5F811C02246604445
:103DB000C5F80D0004E0D3F80D1088420BD31A4665
:103DC00013689C42F7D12C60156004B070BD6FF38E
:103DD0000603EB76E6E71C462C601560F5E7EB7E04
:103DE000B5F809E0009A03F07F0343EACE1C6CF3B8
:103DF0001C020092D5F817201068029050680390BA
:103E0000C3B19DF804C0082161F3030C3046694634
:103E10008DF804C0FFF71CFCEA7ED5F8170002F10C
:103E20007F0363F3060208300421EA76C5F8170021
:103E30002972CAE7D5F813009DF804E000EB010CE5
:103E4000C2EB0C0363F3030E304669468DF804E0C1
:103E5000FFF7FEFBD5F813200220C5F817202872C3
:103E6000B5F80B1095E700BFAFF30080AFF300800B
:103E700030B5436885B03B2B054612D0C06805F1CC
:103E80000C0484420DD02846FFF7DAFB08B905B0D0
:103E900030BD2046FFF724FF01790446032902D0F4
:103EA000FEE70020F3E7274AD0F80D30D0688342C0
:103EB00030D9D1685B1A402B41D803F03F03D905B4
:103EC000637FB4F811E003F07F03009A43EACE1C4D
:103ED0004CEA010060F31C020092FBB19DF8041053
:103EE000082262F303018DF80410D4F819C02846A3
:103EF000DCF8003069460293DCF804200392FFF7F7
:103F0000A7FB9DF805100423081D45F8204001205B
:103F10002371BCE7052222710020B8E7D4F81520F0
:103F2000B4F81310D4F819309DF804C002EB010E58
:103F3000C3EB0E0060F3030C8DF804C0D5E74FF01F
:103F4000FC51BDE7140E0020AFF30080AFF30080FA
:103F500001884B1C03807047AFF30080AFF30080F3
:103F600001880346481E82B2D2F1010038BF00200A
:103F70001A807047AFF30080AFF30080AFF300808A
:103F80000023037043707047AFF30080AFF30080ED
:103F900001EB82020023C160816080E806000361BA
:103FA000704700BFAFF30080AFF30080AFF3008035
:103FB00042680368D01A8010704700BFAFF30080DA
:103FC00003461A6910B411C8201AB2EBA00F0FD81B
:103FD0009868013240F8041B5968986088421A6159
:103FE00004D319680120996010BC70470120FBE7D9
:103FF0000020F9E7AFF30080AFF30080AFF300805B
:10400000016910B4034661B1C268446852F8040BF8
:104010000139A242DA60196101D31A68DA6010BC72
:1040200070470846FBE700BFAFF30080AFF30080A6
:1040300010B50023044684E80A0000F10C00114684
:10404000A3601A46FEF7FCFA204610BDAFF30080CD
:1040500000687047AFF30080AFF30080AFF30080DB
:1040600010B52023044683F31188FCF7C1FF04F147
:104070000C00FEF7E5FB044608B1FFF781FFFCF7F3
:10408000CFFF002383F31188204610BDAFF30080DB
:1040900038B5054608460C46FFF762FF00B938BD43
:1040A00005F10C002146BDE83840FEF7E1BB00BF3A
:1040B000F8B504460E4615460699079A00F10C001D
:1040C0001F46FFF765FF00200123A06026606560A2
:1040D000276263622046F8BDAFF30080AFF3008033
:1040E00000687047AFF30080AFF30080AFF300804B
:1040F0008068FFF7CDBF00BFAFF30080AFF3008053
:1041000010B50446FFF794FF0023A361204610BDBD
:1041100080697047AFF30080AFF30080AFF3008099
:1041200081617047AFF30080AFF30080AFF3008090
:1041300030B50246002385B04068946803930D466D
:10414000202383F311880190FCF752FF019828B1D6
:10415000294603AA00F074F80028F9D13CB12046A2
:10416000294603AA00F0BCF80446002CF7D1FDF75D
:1041700037FAFCF755FF002383F31188039805B045
:1041800030BD00BFAFF30080AFF30080AFF300801D
:1041900070B5049E044630680D4680B9202383F331
:1041A0001188FCF725FF616811B1284600F040F83E
:1041B0006560FCF735FF002383F3118870BD11465D
:1041C00004F10C001A46FEF74BFA00233360E5E7D2
:1041D00070B5049E044630680D4680B9202383F3F1
:1041E0001188FCF705FFA16811B1284600F070F8AE
:1041F000A560FCF715FF002383F3118870BD1146FD
:1042000004F10C001A46FEF72BFA00233360E5E7B1
:10421000806A7047AFF30080AFF30080AFF3008097
:1042200081627047AFF30080AFF30080AFF300808E
:10423000C1627047AFF30080AFF30080AFF300803E
:1042400070B5044600F10C000D461646FFF7B8FEA7
:1042500048B12846FFF77CFE206B616BFDF778FEC6
:104260003068431C3360E06A70BD00BFAFF300806C
:1042700070B5044682B0A160626300F10C000D4687
:10428000266AFFF795FE04F12402034600922846B1
:1042900021463246FFF77CFF02B070BDAFF30080CD
:1042A00030B583B0069D04460095079D0195FFF744
:1042B000FFFE002040F2E733E062206323852046C2
:1042C00003B030BDAFF30080AFF30080AFF30080E8
:1042D00001637047AFF30080AFF30080AFF300805D
:1042E0002DE9F0410D4600F10C080446164600F099
:1042F000F7F840462946FFF763FE88B100F0F8F86A
:1043000007464046FFF77CFE636802462146384672
:1043100000F0E6F92846FFF71BFE3068431C3360C7
:10432000206BBDE8F08100BFAFF30080AFF30080E9
:1043300070B5044682B0A16000F10C000E46256AFB
:10434000FFF736FE04F12402034600923046214670
:104350002A46FFF73DFF02B070BD00BFAFF30080FB
:1043600001857047AFF30080AFF30080AFF30080AA
:10437000008D7047AFF30080AFF30080AFF3008093
:10438000002380E80A008360C3600361704700BFB8
:1043900040687047AFF30080AFF30080AFF3008058
:1043A00041607047AFF30080AFF30080AFF300804F
:1043B00080687047AFF30080AFF30080AFF30080F8
:1043C000F8B50D4D064608460C462F68FFF740FE2F
:1043D0000146384600F01CF908B10020F8BDB1686C
:1043E00011B12046FFF79CFEB4602868214600F01A
:1043F000C7F80120F8BD00BF08140020AFF300800B
:10440000F8B5C4680D461746002C2DD02046FFF79E
:10441000FFFE0126D8B12046FFF7FAFE0226044629
:104420002046FFF7F5FE0346204683B1FFF7F0FE76
:104430000446FFF7EDFE01460136204639B1FFF78D
:10444000E7FE0136202E0446EAD10020F8BD2046C2
:1044500039460124FFF7E4FE384604FA06F22946FD
:10446000FFF706FF2046F8BDC26010460122FFF7A5
:10447000FFFE0120F8BD00BFAFF30080AFF3008066
:1044800000697047AFF30080AFF30080AFF30080A6
:10449000F8B5046906460D46B4B1002705E020468C
:1044A000FFF7B6FE80B127460446AC42F7D120465E
:1044B00087B1FFF7ADFE01463846FFF7B1FE204653
:1044C000FFF7A6FE0028EED128460021BDE8F840FF
:1044D000FFF7A6BEFFF79CFE3061E0E7AFF3008078
:1044E00041F20C40C2F20000704700BFAFF3008001
:1044F00041F21443C2F2000318687047AFF3008022
:1045000038B504680D461CB90EE0FFF741FF0446BC
:104510002046FFF73DFF03462046002BF5D12946F4
:10452000BDE83840FFF73CBF016038BDAFF3008005
:10453000F8B5046806460D46B4B1002705E02046EC
:10454000FFF726FF80B127460446AC42F7D120464C
:1045500087B1FFF71DFF01463846FFF721FF2046D0
:10456000FFF716FF0028EED128460021BDE8F840ED
:10457000FFF716BFFFF70CFF3060E0E7AFF30080F6
:10458000F8B506680D46002E31D03046FFF778FFAB
:10459000044648B925E010F8012B002A35D1204601
:1045A000FFF736FE0446E0B12846FFF751FD074607
:1045B0002046FFF795FD17F8013B002BEBD1037860
:1045C000002BECD121463046FFF762FF22462946F8
:1045D0003046FFF715FF2046FFF71AFE0446002875
:1045E000E2D13046FFF7D4FE06460028CDD1202385
:1045F00083F31188FCF7FCFCFCF7F2FFFCF710FDDD
:10460000002383F311880120F8BD9342C7D1D2E77C
:1046100070B504680E46002C28D02046FFF7C8FE6F
:10462000054640B91CE010F8011B89B92846FFF780
:104630006FFD0546A0B12846FFF70AFD324612F885
:10464000013B002BEFD10378002BEFD1284670BD42
:104650008B42F4D02846FFF75BFD05460028EAD1DF
:104660002046FFF795FE04460028D6D12546284669
:1046700070BD00BFAFF30080AFF30080AFF30080E8
:1046800010B5D0F8151004460239D0F80900FFF72C
:104690002FFD03482146BDE81040FEF7E9B800BFF2
:1046A00058150020AFF30080AFF30080AFF3008017
:1046B00038B500F5A07504461E2128460022FDF7F6
:1046C000BFFF284621460A22FDF7CAFF204638BD13
:1046D00041F21840C2F20000704700BFAFF3008003
:1046E000F8B500F5A0700C4615461F46FEF7A8F871
:1046F0000646C0B12046FFF73BFEA6F811000A4867
:104700000223023F0235C6F80500C6F809400748F3
:10471000A6F813703371C6F8155031466422FFF7BE
:104720008FFA0120F8BDF8BD8146000894130020DF
:104730002148224A836970B54FF44064204D9A6144
:10474000C4F201044FF480562A78D11E03292ED8D2
:10475000DFE801F0251D1402C8206661FDF720FA8C
:1047600064202661FDF71CFAC8206661FDF718FA7F
:1047700026614FF4FA70FDF713FAE5E7E2684FF4AB
:10478000FA7082F48051E160FDF70AFADCE7E06834
:1047900080F48053E3606420FDF702FAD4E7E06818
:1047A00080F40043E360C820FDF7FAF9CCE7642009
:1047B000FDF7F6F9C8E700BF240E002020500008DE
:1047C00094130020AFF30080AFF30080AFF30080BC
:1047D00030B5B7B0FFF784FE2749044631A8FFF78C
:1047E000CFFD0A2224492AA8FFF78AFC2348244A3D
:1047F000836931A920469A61FFF782FE31A82AA970
:10480000FFF7DEFD20B9204631A9FFF791FEFEE754
:1048100024AD00954FF2F07510AB0A22164905241D
:10482000C1F6FF7502A80194FFF73AFD2C7802A8A3
:1048300044F4F051FFF794FD2AA902A8FFF778FD90
:104840006420FDF7ADF90F490F4DCC682AA8FFF79A
:1048500007FC3234014650B12A884280688888803B
:10486000AB882AA8CB80EA880A81FFF761FC204642
:10487000FDF7AEF9EAE700BF28500008240E00203B
:1048800030500008140E002068150020AFF300809F
:1048900070B5C1F30A55A5F57E73073B132B0C4683
:1048A00014DC002B34DB4FF6FF75C0F20F0545FA20
:1048B00003F50D4229D04FF4002242FA03F31C19EC
:1048C00024EA050400222146104670BD332B07DD83
:1048D000B3F5806FF9D102460B46FBF787FC70BD3C
:1048E000A5F58263033B4FF0FF3626FA03F303423C
:1048F000EBD0C5F586650121023501FA05F52A18C8
:1049000028BF641822EA0302DDE70028D3D1DCE7E0
:10491000013301F0004401D00022D4E744F07E547A
:1049200044F4E0040022CEE7000000000000000094
:1049300069646C65000000000000000000000000D9
:10494000535623310000000053562332000000006C
:104950005356233300000000535623340000000058
:104960005356233500000000535623360000000044
:104970005356233700000000535623380000000030
:1049800053562339000000005356233130000000F5
:1049900053562331310000000000000000000000E9
:1049A0002263685654536574492228290000000088
:1049B00022636856545265736574492228290000A1
:1049C0006368565452657365744928292C20233135
:1049D00000000000000000000000000000000000D7
:1049E000636853636852656164794928292C2023E0
:1049F00031000000737461636B206F766572666CC2
:104A00006F770000000000000000000000000000C0
:104A10002263685468644372656174654922282979
:104A20000000000022636854686453657450726922
:104A30006F72697479222829000000006368546845
:104A400064526573756D6528292C202331000000A0
:104A5000226368546864536C6565702228290000DD
:104A60006368546864457869745328292C2023317D
:104A7000000000002263685468645761697422284A
:104A80002900000063685468645761697428292C00
:104A90002023310063685468645761697428292CA5
:104AA0002023320000000000000000000000000091
:104AB0006D61696E0016421104044C080C10141844
:104AC0001C20212223240000000000000000000020
:104AD0002263684D7478496E6974222829000000A9
:104AE0002263684D74784C6F636B53222829000051
:104AF00063684D74784C6F636B5328292C202331E5
:104B00000000000063684D74784C6F636B53282974
:104B10002C202332000000002263684D7478547208
:104B2000794C6F636B5322282900000063684D7431
:104B300078556E6C6F636B28292C202331000000A0
:104B400063684D7478556E6C6F636B28292C202335
:104B50003200000063684D7478556E6C6F636B5360
:104B600028292C202331000063684D7478556E6C21
:104B70006F636B5328292C202332000000000000B3
:104B800022636845767452656769737465724D6116
:104B9000736B222829000000226368457674556EE5
:104BA00072656769737465722228290022636845FB
:104BB000767442726F6164636173744D61736B49A3
:104BC000222829002263684576745369676E616CF8
:104BD0004922282900000000226368457674536941
:104BE000676E616C222829002263684576744469E7
:104BF0007370617463682228290000006368457639
:104C000074446973706174636828292C202331000F
:104C100022636849515265616454696D656F7574AA
:104C2000222829002263684F5157726974655469BC
:104C30006D656F75742228290000000000000000D7
:104C4000226368506F6F6C496E69742228290000D6
:104C5000226368506F6F6C4672656549222829008F
:104C6000226368506F6F6C4C6F616441727261793E
:104C700022282900226368506F6F6C416C6C6F634F
:104C80004922282900000000000000000000000068
:104C90002261646353746172742228290000000049
:104CA000616463537461727428292C2023310000DD
:104CB0002261646353746F70222829006164635316
:104CC000746F7028292C2023310000002261646356
:104CD0005374617274436F6E76657273696F6E4957
:104CE000222829006164635374617274436F6E7685
:104CF000657273696F6E4928292C202331000000EA
:104D00002261646353746F70436F6E76657273696A
:104D10006F6E22282900000061646353746F704332
:104D20006F6E76657273696F6E28292C20233100AF
:104D30002261646353746F70436F6E76657273693A
:104D40006F6E49222829000061646353746F7043B9
:104D50006F6E76657273696F6E4928292C20233136
:104D600000000000616463436F6E766572742829E9
:104D70002C202331000000002261646341637175BF
:104D800069726542757322282900000022616463FC
:104D900052656C65617365427573222829000000B5
:104DA00022736453746172742228290073645374EB
:104DB00061727428292C202331000000227364536F
:104DC000746F702228290000736453746F7028294F
:104DD0002C20233100000000227364496E636F6D44
:104DE000696E674461746149222829002273645204
:104DF00065717565737444617461492228290000E6
:104E0000F1290008D1290008312A0008112A0008D8
:104E1000212A0008012A0008E1290008C129000808
:104E200022646D6153747265616D416C6C6F636176
:104E3000746522282900000022646D615374726534
:104E4000616D52656C656173652228290000000060
:104E5000646D6153747265616D52656C65617365F3
:104E600028292C2023310000000000000000000051
:104E7000080002400400024000000B001C00024039
:104E80000400024004010C00300002400400024013
:104E900008020D0044000240040002400C030E0012
:104EA000580002400400024010040F006C00024051
:104EB000040002401405100080000240040002407B
:104EC00018061100000000000000000000000000B3
:104ED0006164635F6C6C645F737461727428292C05
:104EE000202331000000000000000000000000004E
:104EF000FFFFFFFF08808888B8448B88FFFFFFFF13
:104F00000088888888783333FFFFFFFF8888888887
:104F10008888888800000000000000000000000071
:104F20000000000000000000000000000000000081
:104F300022727463616E53746172742228290000B6
:104F4000727463616E537461727428292C2023314A
:104F50000000000022727463616E53746F70222827
:104F600029000000727463616E53746F7028292CDD
:104F700020233100000000000000000000000000BD
:104F8000226D736771756575655F696E736572749F
:104F900022282900226D736771756575655F7265DA
:104FA0006D6F7665222829006D736771756575656B
:104FB0005F72656D6F766528292C20233100000013
:104FC000226D736771756575655F67657422282941
:104FD000000000006D736771756575655F676574C6
:104FE00028292C20233100000000000000000000D0
:104FF00001000400000000000000000000000000AC
:105000000000000000000000F801003F0000300038
:105010000000000041240400000000000000000027
:10502000626C696E6B6572004952526177000000D4
:0C50300050554220544844202331000019
:0C50400040420F00640000003C00000033
:0400000508000A7174
:00000001FF
